:020000040000FA
:030000000208767D
:1008000000000080FB120885B90003020870E49024
:10081000E2FF784F79098002F0A3D8FCD9FA90EB77
:100820004DAA82AB83901DDF787079018015E49327
:10083000A3AC82AD838A828B83F0A3AA82AB838C24
:10084000828D83D8E9D9E790E2FFAA82AB83901D1D
:10085000DF780179018015E493A3AC82AD838A82AD
:100860008B83F0A3AA82AB838C828D83D8E9D9E7EE
:1008700012115712080075D0007581C07510FF75F0
:1008800011E2020805790122E066701008A3E06613
:10089000700A08A3E066700408A3E06622C3E0962D
:1008A00008A3E09608A3E09608A3E096A2D265D03C
:1008B0003322C3E7960809E7960809E7960809E78F
:1008C0009622E4CFC0E0E4CEC0E0E4CDC0E0E4CCCA
:1008D000C0E075F020C3E633F608E633F608E633E9
:1008E000F608E633F6181818EC33FCED33FDEE335A
:1008F000FEEF33FFC3EC9709ED9709EE9709EF97E9
:10090000191919400FFFEC97FC09ED97FD09EE97B7
:10091000FE191906D5F0BEECF709EDF709EEF70957
:10092000EFF7191919D0E0FCD0E0FDD0E0FED0E0DF
:10093000FF2212099A1818181208C21209891919E7
:100940001922120989191919080808E61818182017
:10095000E7E01208C212099A18181822090909E7D3
:1009600019191920E7DC080808E618181820E70309
:100970000208C212099A1818181208C212099A1805
:10098000181812098919191922E4C397F709E4976D
:10099000F709E497F709E497F722E4C396F608E429
:1009A00096F608E496F608E496F62260160808081B
:1009B000C6C313C618C613C618C613C618C613C6B0
:1009C000D5E0EA227009080808226016181818C62F
:1009D000C333C608C633C608C633C608C633C6D531
:1009E000E0EA22E627F60809E637F60809E637F6D0
:1009F0000809E637F622E026F608A3E036F608A353
:100A0000E036F608A3E036F622E026F008A3E0364A
:100A1000F008A3E036F008A3E036F022E0F608A3E1
:100A2000E0F608A3E0F608A3E0F622E6F008A3E665
:100A3000F008A3E6F008A3E6F022CAC0E0E6F0A3BF
:100A400008DAFAD0E0FA22CAC0E0E0A3C582CCC539
:100A500082C583CDC583F0A3C582CCC582C583CDB5
:100A6000C583DAE6D0E0CA22C3E498F8E499F91223
:100A70000AA98026C3E49AFAE49BFBE920E7E9127D
:100A80000AA9E498F8E499F922C3E498F8E499F9FA
:100A9000120AA9E498F8E499F9C3E49AFAE49BFBF2
:100AA00022EB20E7CFE920E7E0B90010BB0008E81F
:100AB0008AF084F8AAF022E4FBC8FA22EB70227BC9
:100AC00010C833C8C933C9335007C39AC3DBF28097
:100AD000069A50012ADBEAC833F4C8C933F4C9FACC
:100AE0002275F008E4C833C8C933C933C99AC99B11
:100AF0005004C92AC93BD5F0ECFBC833F4C8E4C99B
:100B0000FA22700422600D18C6C333C608C633C665
:100B1000D5E0F418222510C0A8C2AF40021511F587
:100B200010D0A822C0D02510C0A8C2AF5002051115
:100B3000F510D0A8D0D0222510F582C0A8C2AF40B1
:100B4000021511F510D0A8851183222510F582E435
:100B50003511F58322E4732510C582C0E0E5113418
:100B6000FFC583C0E0E510C3958224F9C0A8C2AFD9
:100B7000858311858210D0A8CEF0A3E520F0A3785C
:100B800008E608F0A3DEFAEFF0A3E58124FBF8E61F
:100B900008F0A3E608F0A30808E608F0A3E608F0CA
:100BA000A315811581D0E0FED0E0F815811581E80C
:100BB000C0E0EEC0E022851183851082E0A3FEE054
:100BC000A3F5207808E0A3F608DFFAE0A3FFE0A38E
:100BD000C0E0E0A3C0E0E0A3C0E0E0A3C0E085A8DF
:100BE000F0C2AF85821085831185F0A8D083D082B2
:100BF0002274048006740280027401C0E0F40412BE
:100C00000B37D0E0120A3A22740480047402800088
:100C1000CCC0E0EDC0E0E510C39CCCAD1150011D8F
:100C2000C0A8C2AF8C108D11D0A8120A47D0E0FD29
:100C3000D0E0FC22D083D082C5F0E493A3C5F0C3FA
:100C400095F0F5F0E493A3C395F04005E5F004803A
:100C500001E475F002A42582F582E5F03583F58381
:100C6000E493A3C0E0E493C0E022D083D082E9C043
:100C7000E0E493A3C386F0C5F095F0F908E493A3EC
:100C800086F0C5F095F0700BE493A3C3994005E995
:100C9000048002A3E475F002A42582F582E5F03514
:100CA00083F583D0E0F9E493A3C0E0E493C0E022AD
:100CB00074F6120B577F01EFF83395E0F9E875F001
:100CC00003A4F8AEF075F003E9120D51E0600C0FCB
:100CD000EFC39406A2D265D03340DCEFC39406A2E2
:100CE000D265D0334009E48A828B83F0FA805C7548
:100CF0000801750900EF7808120B02AE08741F5E38
:100D00004480F5D6EEF455D1F5D1E5A8F50AC2AF89
:100D1000EFF5083395E0F509E50875F003A4F8AEA2
:100D2000F075F003E509120D517401F0A3ECF0A386
:100D3000EDF0EF8A828B83F0850AA874037808129D
:100D40000B02E50824F7FAE50934E2FB7F03020B06
:100D5000B6A42EF9E8241FF582E934E3F583227462
:100D6000F8120B5774DF8A828B83F074D9A3F0EDED
:100D70008A828B83A3A3F0EC8A828B83A3A3A3F044
:100D800074FF8A828B83A3A3A3A3A3F074208A8217
:100D90008B83A3A3A3A3F0E9A2E0E492E03333336F
:100DA00054F8540F44168A828B83A3A3A3A3A3A34E
:100DB000A3F074138A828B83A3A3A3A3A3A3F07FBE
:100DC00001020BB674F7120B5775082075090078ED
:100DD00008120BF57C007D007AFF7BE2121DB074D7
:100DE00002120B2475080F7808120BF57C007D00A9
:100DF0007A1F7BE3121DB07402120B24E5D6A2E029
:100E0000E492E0F5D6E5D7A2E0E492E0F5D7E5D1AB
:100E1000A2E0E492E0F5D1C2C0D2B874E2F5D37595
:100E2000D2FF7F02020BB674F7120B57E9FE74096A
:100E3000120B4BE0F8A3E08A828B83F0E8A3F074F6
:100E4000DF8A828B83A3A3F074D98A828B83A3A3C6
:100E5000A3F0EA2404F8EB3400F9ED541FC0E08855
:100E6000828983E054E0FFD0E04FF0EC8A828B83EC
:100E7000A3A3A3A3A3F088828983E0541FF0EEA26A
:100E8000E0E492E033333354F8540F44428A828BC7
:100E900083A3A3A3A3A3A3A3F074208A828B83A319
:100EA000A3A3A3A3A3F07F02020BB674F5120B5702
:100EB000121A067F04020BB674F3120B578A0A8BC0
:100EC0000BECFEEDFF740D120B4BE0FA750800758C
:100ED0000900750D01E990EC3DF0EA90EC3EF080E0
:100EE0002CEE90EC3CF0E5082EF508E5093FF509FD
:100EF0001218637A3C7BEC121AFBE96404700E79D9
:100F00000A121D4C150CE50C70E6750D00C3E508C2
:100F10009EE5099F50427401650D703C121863757F
:100F20000C04E50A2508F8E50B3509F990EC3FE8D3
:100F3000F0A3E9F0EEC39508F8EF9509F9C3E8943A
:100F40007BE99400409B747A90EC3CF0E508247AAD
:100F5000F508E50934008096A90D7F06020BB674EA
:100F6000F1120B5774FE120B15851082851183EA5E
:100F7000F0A3EBF08C0E8D0F7411120B4BE0FEA35F
:100F8000E0FF7413120B4BE0F508A3E0F509750AB6
:100F900001750B01750C00EE7001EF6003750C011B
:100FA0007ABC7BEB121C8502104B121863A2C05056
:100FB0007AC2C0E5D1A2E0501253D1FE90E32012D4
:100FC00010977002E5836003120B55E5D1A2E15042
:100FD0001253D1FD90E3231210977002E583600352
:100FE000120B55E5D1A2E2501253D1FB90E3261229
:100FF00010977002E5836003120B55E5D1A2E35010
:101000001253D1F790E3291210977002E583600321
:10101000120B55E5D1A2E4501253D1EF90E32C12FC
:1010200010977002E5836003120B55E50C601C7984
:1010300002121D4CEE24FF1EEF34FFFFEE7001EF95
:101040007009750B00750A0075E1E590EB4AE064E4
:10105000106007E50B6003020FAA7401650A702B8C
:10106000851082851183E0F8A3E0F583888274C03F
:10107000F0A374EBF090EBBCE0850E82850F83F05B
:1010800090EBBEE0850882850983F0A90A740212FC
:101090000B247F08020BB6E0F8A3E0F9888289836D
:1010A000E5822274F1120B578A088B098C0A8D0B8A
:1010B0001210F590EB69780C120A1C780C79081262
:1010C00008B2402A740490DF17F0E0A2E440FB90DD
:1010D000DF02E0C2E3F090DF03E0D2E5F090DF54FE
:1010E000E054F34401F0E0C2E5F0790180027900B8
:1010F0007F08020BB674F1120B578A088B098C0A11
:101100008D0B90EB6D780C120A1C7808790C120884
:10111000C290EB7178081209F6E50890DF11F0E54E
:10112000095403C0E090DF10E054FCFAD0E04AF02C
:101130007F08020BB674F5120B57D29143FE02538F
:10114000F4FDD29043FE0153F4FE90EB38E0F91227
:101150000EAB7F04020BB674FC120B1575080074FD
:10116000FF90EB38F0741090EB39F0750A04750BB2
:1011700000780A120BF57402120B4B85820A8583E4
:101180000B780A120BF590EB92780C120A1CAA0C41
:10119000AB0DAC0EAD0F121856120B247964121D54
:1011A0004C53BEFBE5BEA2E650FA0053C6B8E5C6F6
:1011B00043BE0443C680851082851183E090EB8E88
:1011C000F07401120B4BE090EB8FF07402120B4B9A
:1011D000E090EB90F07403120B4BE090EB91F090E9
:1011E000EB96780C120A1CAA0CAB0DAC0EAD0F12CC
:1011F000113512186A7E0AA290B392901218431EFB
:10120000EE70F4121930E96401702A902007E4931B
:10121000FA902006E493F9EAF890EB42F0A3E9F0A3
:1012200090EB36E8F0A3E9F0F5838882120B557451
:1012300004120B242290D804E49364556003021234
:10124000F790D800E493F508750900750A00750B4E
:1012500000741878081209C490D80193F50C750D24
:1012600000750E00750F007410780C1209C4780810
:10127000790C1209E390D802E493F50C750E007412
:1012800008780C1209C47808790C1209E390D80385
:10129000E493F50C750D007808790C1209E390EBD6
:1012A0003E7808120A2B90EB3E7808120A1CAA0816
:1012B000AB09AC0AAD0B1210F57964121D4C90D835
:1012C00005E493F9121AED90D806E49390EB39F007
:1012D000742190EB88F090EB89F01213DD80F1A27D
:1012E00091B3929174012508F8E43400F97A037BF4
:1012F00000120AA1EAF508A90812187D90EB3E78C1
:101300000C120A1CAA0CAB0DAC0EAD0F1210F57925
:10131000C8121D4C7509007809120BF990EB39E0E1
:10132000F97C077D007A8B7BEB120EB87401120BEF
:1013300024793212143470A712143E643470A085DC
:101340001082851183AC82AD8390EB3AE0FAA3E082
:10135000FB1218D5E964017086121790A3A3E090E0
:10136000EB38F0F9121AED90EB3E7808120A1C7473
:101370001878081209ABE50890EB791213D6120A17
:101380001C741078081209ABE50890EB7A1213D69A
:10139000120A1CE50990EB7B1213D6120A1CE50811
:1013A00090EB7CF0745590EB7DF090EB38E090EB97
:1013B0007EF090EB39E090EB7FF090EB9A120C0806
:1013C0007C087D007A797BEB12171A120B2479C8FE
:1013D000121D4C0212D0F090EB3E78082274F812E5
:1013E0000B5712185C7508007808120BF990EB394E
:1013F000E0F97C047D007A877BEB120EB874011251
:101400000B24790A121434701B12143EFA74316AD8
:10141000600574336A700DC290E490EB44F01214CE
:101420004802183490EB44E004F0C3940640B6122E
:10143000172080FE121D4C1217ABE964012290EBBD
:101440003AE0F8A31217522274F1120B57747F126C
:101450000B15E4851082851183F0800B1217ABE920
:10146000640160030216F790EB3AE024021217635E
:1014700064316008E0643360030216F7741190EB86
:1014800081F088828983E090EB82F090EB3AE0244F
:1014900003FAA3E03400FBEAFCEBFD8C828D83E0D1
:1014A00090EB85F090EB3AE024040AA3E03400FBD3
:1014B000EAFEEBFF8E828F83E090EB86F090EB3AB2
:1014C000E024050AA3E03400FB8C828D83E06003F6
:1014D00002159C8E828F83E0600302159C888289AE
:1014E00083E06431705990EB3AE0240D121763F5F4
:1014F0000D750C0890EB3AE0F8A31217A364247062
:101500003E90EB9E120C087C087D0012171A120BFD
:10151000247914121D4C7508087509007808120BFF
:10152000F57403120B4B8582088583097808120B2A
:10153000F590EB9E7808120A1C12184E120B24121A
:10154000143E6433600302161B90EB3B1217A3F5A5
:101550000D750C0490EBA2120C087C047D0090EB3E
:101560003AE0240512175B120B247914121D4C75F6
:1015700008047509007808120BF57403120B4B85EB
:1015800082088583097808120BF590EBA27808127F
:101590000A1CAA08AB09AC0AAD0B80798A828B833E
:1015A000E0F50CF582AE8290EB3AE02EFAA3E0343F
:1015B000008A82F583A3A3A3A3A3A3A3A3E0F50DAD
:1015C000181812176FA3E0FA12176FE0F9EAF888FB
:1015D000088909750A00750B007808120BF1EEFCFA
:1015E0007D0090EB3AE0240812175B120B2479146B
:1015F000121D4C8E0E750F00780E120BF57403122F
:101600000B4B85820E85830F780E120BF5AA08AB63
:10161000097C007D00121856120B24AC0DA90C7425
:1016200001120B4BAA82AB8312180AE96401707E87
:10163000740190EB84F012178B702E12177C7029B6
:1016400012174B64317022E490EB81F0F8F9121715
:1016500007741112173540F690EBA6120C081217FA
:1016600012120B247914121D4C12178B702E1217A4
:101670007C702912174B64337022E490EB81F0F8F0
:10168000F9121707748812173540F690EBAA120C5E
:1016900008121712120B247914121D4C121930E97A
:1016A0006401700F74018510828511838004E490B9
:1016B000EB84F0E490EB44F090EB3AF0A3F090EB85
:1016C0003CF07508007808120BF990EB39E0F97CD2
:1016D000067D007A817BEB120EB87401120B24791F
:1016E00032121D4C851082851183E0640160030273
:1016F000145C12172080FE90EB44E004F0C39412B7
:1017000040C012172080FEE82475F582E934EBF51D
:1017100083227C047D007A757BEB12C8007404225E
:10172000759A0075B80075A80053C9FCE5C943C98E
:101730000143C90822F0E8240108E93400F9C3E8AC
:101740009404E99400A2D265D0332290EB3B1217A7
:101750005222E0F5838882A3A3E022FAA3E03400BA
:10176000FB80B7F8A3E03400F988828983E02290F7
:10177000EB3B12177622121786A3A32290EB3B12A3
:101780001786E064012212179AA322121790E02212
:1017900090EB3AE0F8A312179A22E0F5838882A32F
:1017A000A3A322121776A3A3A3E02274F7120B5768
:1017B0007E147F00800D7901121D4CEE24FF1EEF78
:1017C00034FFFF75C9A075C95075083D7509EB78E0
:1017D00008120BF57508C87509007808120BF57C1E
:1017E0003C7DEB7A3A7BEB120F5F7404120B24E919
:1017F00064017009A291B3929179018008EE7001A1
:10180000EF70B379007F02020BB674F7120B577DAD
:10181000007E00800E8E08EA2508F582EB12183D46
:101820002DFD0EEEC39940EDEC6D70047901800240
:10183000790080D17F01020BB6F582E5833400F593
:1018400083E02279C8121D4C79C8121D4C22AA08C7
:10185000AB09AC0AAD0B12CBCF74042275C900439F
:10186000C9082275C9A075C95022759A0075B800BB
:1018700075A800C28B75E900C2C0C2892274F51236
:101880000B57E9120C340004D2189418A818BC188D
:10189000BC18BC1890EB967808120A1C90EB3E78A6
:1018A00008120A2B7410802690EBAE7808120A1CDE
:1018B00090EB3E7808120A2B7420801290EBB278DD
:1018C00008120A1C90EB3E7808120A2B743090EB39
:1018D00039F002115274F8120B578A828B83121955
:1018E00023E06E70388A828B83121922A3E06E7017
:1018F0002C8A828B83A3121922A3A3E06E701E8A06
:10190000828B83A3A3A3A3A3A3A3A3A3E0FA8C82A4
:101910008D83A3A3A3E06A70047901800279000299
:101920001834A3A3A3A3A3A3A3E0FE8C828D8322D8
:10193000C082C083902000E4936411703F90200126
:10194000E49364117036902002E4936411702D903A
:101950002003E4936411702490C000E493648870C1
:101960001B90C001E4936488701290C002E49364F9
:1019700088700990C003E493648860047900800251
:101980007901D083D0822274F7120B5790DF53E095
:10199000600675E1E675E1E6121D19E0FA90EB4884
:1019A000121C7EA3E0F9EAF888828983E024FBF028
:1019B000A3E0FA90EB49E06A702388828983E0FA19
:1019C000E82AF582E93400F583A3A3A3A3A3E0A248
:1019D000E7500A744090EB4AF07410802375E1E6FA
:1019E00075E1E675080175090090EBB7E07808121B
:1019F0000B02E508541FF5D6121C72748090EB4A56
:101A0000F07F02020BB674F5120B577E01E990EBE2
:101A100049F0E490EB4BF090EB4AF090EB4CF07512
:101A2000E900759100121C75439A011210A3E97028
:101A3000011E740790DF4FF0C289D2A875E1C2750C
:101A4000E1C775E1C675E1C675E1C175E1FE120D2C
:101A5000C47C007D007AB67BEB120CB090EB45EABB
:101A6000F0A3EBF090EBB6E06005C3940540027E76
:101A7000007508007509007808120BF579007C00E4
:101A80007D0090EB45E0FAA3E0FB120E27740212F2
:101A90000B247C877D197AB77BEB120CB090EB4757
:101AA000EAF0A3EBF090EBB7E06005C394054002C9
:101AB0007E0079017C007D00120D5F750801E078E1
:101AC00008120B02121AE475080175090090EBB6B2
:101AD000E07808120B02121AE4D2B8D2C0EEF97FF5
:101AE00004020BB6E508541F4480F5D622C082C01C
:101AF00083E990EB49F0D083D0822274F5120B5722
:101B00007508018A828B83E06067C3947B400A7505
:101B10000808E490EB4B021C0F750A01750B00904E
:101B2000EBB6E0780A120B02E50A121AE6EA240381
:101B3000F8EB3400F988828983A3E0C0E090EB459C
:101B4000E0FCA3E0F5838C82D0E0F088828983E01A
:101B5000C0E090EB45121C7BD0E0F090EB45121DED
:101B60003F8A828B83E0C0E090EB45121D3AD0E0C3
:101B7000F0EA2402F8EB3400F9E8FEE9FF8E828FE8
:101B800083E0A2E240036480F090DF39E0640670F5
:101B90000C90DF53E0600675E1E675E1E653E9BFBE
:101BA0005391EF121C758A828B83E02405F5D9A32B
:101BB000E0F5D990EB49E0F5D98E828F83E0F5D935
:101BC0008A828B83E06018750A01750B0090EBB672
:101BD000E0780A120B02AA0A741F5AF5D68AD79027
:101BE000DF07E06480700875E1E27901121D4C7531
:101BF000E1E490DF39E0C3941F501D75E1E77508FB
:101C0000045391BF8E828F83E0A2E240036480F090
:101C1000A908021ADF121863E5E9A2E64004A289C6
:101C200050F3A2895038E06411702975E1E575E13F
:101C3000E675E1E6750A01750B0090EBB7E0780AEE
:101C4000120B02E50A541FFA74804AF5D68AD6753B
:101C5000E1E28008E06438700375E1E7C289E5E9F4
:101C6000A2E65009744090EB4BF075E900121C722B
:101C7000809E75E900539BFCE59B22E0F8A3E0F50C
:101C8000838882A32274F7120B57A289503B90DFFE
:101C900039E06411702975E1E575E1E675E1E675F5
:101CA000080175090090EBB7E07808120B02E5080F
:101CB000541FFC74804CF5D68CD675E1E28008E0A8
:101CC0006438700375E1E7C289742090EB4A121DF5
:101CD0002C120B02121AE490EB47121C7BA3EBF0C0
:101CE000121D19EAF090EB47121D3F90EB47121DB1
:101CF0003A74FF121D2C120B02E508541FF5D69002
:101D0000DF39E06406700C90DF53E0600675E1E6B1
:101D100075E1E675E1E2021A0190EB47121D2022FF
:101D2000E0F8A3E0F5838882A3A3A322F07508015D
:101D300075090090EBB7E0780822121D47A3221224
:101D40001D47E054E0F022121D20A32274F1120B73
:101D500057E960578982AA828A0875090074077852
:101D600008120B02F50AF50BEA75F072A4FAACF052
:101D7000E42C8A0CF50D3395E0F50EF50F78087913
:101D80000C1209E3740755C678081209AB85080CD4
:101D900085090D850A0E850B0F90EBB8780812099E
:101DA000F690EB4D780C12088870E27F08020BB6B3
:101DB00074F8120B577408120B4BE0F8A3E0F98A81
:101DC000828B838003ECF0A3E8FEE9FF74FF2E18FA
:101DD00074FF3FF9EE7001EF70EB7F01020BB6006C
:101DE0000000000000020000080000008000000168
:101DF0000000000001000004000000193C1F00E882
:101E000003000000F8FFFFFFFFFFFF020202025580
:101E1000FFFFFF1131810100001121210111242454
:101E200000000000FCFF000070B0250000D800009A
:101E30000420000004C000000020000000C00000DA
:0E1E40005062250080D725000102FFFFFFFF42
:0C200000000000000000000000000000D4
:08C00000000000000000000038
:10C8000074F1120B5774F6120B157402120B4BEAEB
:10C81000F0A3EBF07404120B4BECF0A3EDF07419E1
:10C82000120B4BC082C08390EB4D7808120A1CD0CB
:10C8300083D082780812089D500302C9B07419127F
:10C840000B4BC082C08390EB517808120A1CD08336
:10C85000D082780812089D400302C9B07419120BE7
:10C860004B7808120A1C90EB55780C120A1C7808B9
:10C87000790C12095CAA08AB097419120B4BC0821F
:10C88000C0837404120B4BE0F50CA3E0F50D339557
:10C89000E0F50EF50FD083D082780C1209F690EBFC
:10C8A000557808120A1C780C790812095CE50CC34B
:10C8B0009AF8E50D9BF9740128FEE439FF74016EC6
:10C8C0007001EF600302C9B58A088B09750A00750B
:10C8D0000B00740B78081209C4FAAB09AC0AAD0B53
:10C8E00012CD8E8A0C8B0DAE0CAF0D7402120B4B59
:10C8F000E0F8A3E0F97406120B4BE8F0A3E912CBC1
:10C9000099120BF5750C36750DE3780C120BF57A50
:10C9100000AB09AC0AAD0B12CBCF7404120B24741C
:10C9200019120B4B780C120A1C90EB557808120A5E
:10C930001C780C790812095CAC08AD097800790004
:10C9400080377406120B4B12CB8BC0E0E82CFAE94F
:10C950003DFBEA2436F582EB34E3F583D0E0F07456
:10C9600006120B4BE02401FAA3E03400FB7406121C
:10C970000B4BEAF0A3EB12CB957404120B4BE0FACD
:10C98000A3E0FBC3E89AE99BA2D265D03340B3E5AC
:10C99000AEA2E640FA8E088F097808120BF57901ED
:10C9A0007C007D087A367BE312CF497402120B2497
:10C9B000740A02CE7C7406120B4BEAF0A3EBF074FF
:10C9C00002120B4BE0F8A3E0F9851082851183E891
:10C9D000F0A3E9F07402120B4BE4F0A3807485100D
:10C9E00082851183E0FCA3E0F5838C82E0C0E0E85F
:10C9F0002A2436F582ED34E3F583D0E012CBC4FC73
:10CA0000A3E03400FD851082851183ECF0A3EDF0E6
:10CA10007404120B4B12CB7112CB95E82AE93BFD43
:10CA2000C3940840B9E5AEA2E640FA7408120B4B75
:10CA3000120C0C79017C007D087A367BE312CF4919
:10CA40007402120B247402120B4BE02401F0A3E0D9
:10CA50003400F07402120B4BC3E09EA3E09F40032E
:10CA600002C9B07406120B4BC082C0837402120B51
:10CA70004BE0F8A3E0F9D083D082E028F508A3E0EA
:10CA800039F509750A00750B00740B78081209C492
:10CA9000FAAB09AC0AAD0B12CD8E7408120B4BEA3F
:10CAA000F0A3EB12CB99120BF5750C36750DE378EC
:10CAB0000C120BF57A00AB09AC0AAD0B12CBCF749C
:10CAC00004120B247402120B4BE07002A3E07024DA
:10CAD0007419120B4B780C120A1C90EB5578081243
:10CAE0000A1C780C790812095CAA08AB097800794D
:10CAF0000002CA1B7402120B4B74FF2EF874FF3F26
:10CB0000F9E0687003A3E069780079007035801659
:10CB100012CB85C0E012CB7AD0E012CBA374041202
:10CB20000B4B12CB71F07404120B4BC3E09401A3B6
:10CB3000E09400A2D265D03350D6E5AEA2E640FA2A
:10CB400002CA2B7404120B4BE02400F0A3E034F86B
:10CB5000F012CB85C0E012CB7AD0E012CBA3C39405
:10CB600008A2D265D03340E9E5AEA2E640FA02CA97
:10CB70002BE024FFF0A3E034FF22E82436F582E91D
:10CB800034E3F58322851082851183E0FAA3E0F572
:10CB9000838A82E02212CBBA22F0750C00750D0850
:10CBA000780C2212CBC4FAA3E03400FB85108285F6
:10CBB0001183EAF0A3EB12CBBA22F0E8240108E9D2
:10CBC0003400F922F0851082851183E0240122745B
:10CBD000F1120B5774FB120B1512CF377416120B90
:10CBE0004BE0FEA3E0FF851082851183C082C083E5
:10CBF00090EB4D7808120A1CD083D0827808120876
:10CC00009D500302CD74851082851183C082C0833C
:10CC100090EB517808120A1CD083D0827808120851
:10CC20009D400302CD74851082851183780C120A11
:10CC30001C90EB597808120A1C780C790812095CD0
:10CC4000AA0CAB0D8510828511838E0CEFF50D3388
:10CC500095E0F50EF50F780C1209F690EB5978086F
:10CC6000120A1C780C790812095CA80CA90DE8704E
:10CC700001E960157401687001E9600DE8C39AF874
:10CC8000E99BF9E87001E970598510828511837874
:10CC900008120A1CAA08AB09AC0AAD0B12CE84EE2E
:10CCA000F8EFF974FF281E74FF39FFE87001E9708E
:10CCB0000302CD748A828B83E493C0E07414120B58
:10CCC0004B12CD79D0E0F07414120B4B12CD8212BE
:10CCD0000B4BE8F0A3E9F08A828B83A3AA82AB8393
:10CCE00080BDE59FC0E07404120B4BD0E0F0806A79
:10CCF000851082851183780C120A1C90EB597808F4
:10CD0000120A1C780C790812095CE50CF59F851055
:10CD1000828511837808120A1CAA08AB09AC0AADF7
:10CD20000B12CE848A828B83E493C0E07414120BBE
:10CD30004B12CD79D0E0F07414120B4B12CD82124D
:10CD40000B4BE8F0A3E9F090EB5D7808120A1C8524
:10CD500010828511837808120A09EEF8EFF974FF42
:10CD6000281E74FF39FFE87001E970847404120B07
:10CD70004BE0F59F740502CE7CE0F8A3E0F58388D4
:10CD80008222E02401F8A3E03400F974142274F143
:10CD9000120B5774F8120B1512CF2DC082C083905E
:10CDA000EB4D7808120A1CD083D082780812089DB7
:10CDB000401D851082851183C082C08390EB51781D
:10CDC00008120A1CD083D082780812089D40077A86
:10CDD000007B0002CE7A8510828511837808120AC2
:10CDE0001C90EB55780C120A1C7808790C12095C1F
:10CDF0007404120B4B780C120A2B85108285118358
:10CE00007808120A1C90EB55780C120A1C780879E5
:10CE10000C12095C74097808120B02C008C009746E
:10CE200004120B4B780C120A1C90EB617808120A62
:10CE30001C780C790812095C7406780C120B02D06D
:10CE400009D008AA0CE50D4509FB7404120B4B78B8
:10CE50000C120A1C90EB617808120A1C780C7908F5
:10CE600012095C90EB65780C120A1C7808790C1298
:10CE7000095CE5084AFAE5094BFB7408120B247FAC
:10CE800008020BB674F1120B5774FC120B1512CF7B
:10CE90002DC082C08390EB4D7808120A1CD083D03D
:10CEA00082780812089D401D851082851183C082FA
:10CEB000C08390EB517808120A1CD083D082780886
:10CEC00012089D40087A007B00740480AF851082B0
:10CED0008511837808120A1C90EB59780C120A1CF1
:10CEE0007808790C12095C7808120C6A000003C5F6
:10CEF000CEF9CE0ACF0FCF28CF8510828511837847
:10CF000008120A1CAA08AB0980BF759F0180EA7548
:10CF10009F028510828511837808120A1CE4250877
:10CF2000FA74803509FB80A1759F0380CC12CF373E
:10CF300085108285118322851082851183EAF0A3F2
:10CF4000EBF0A3ECF0A3EDF02274F5120B57E9FF20
:10CF5000740B120B4BE0F50AA3E0F50BE5A8FEC23B
:10CF6000AFE50BF5088508ADE50AF5AC8008EC24C3
:10CF7000010CED3400FDEC540370F3EB90E32EF064
:10CF8000EA90E32FF074DF90E330F074AF90E33178
:10CF9000F0ED541FC0E090E332E054E0FAD0E04AF4
:10CFA000F090E333E0ECF090E332E0541FF090E3D4
:10CFB00035E054FC4402F0E0C2E2F0E0C2E3F0E00D
:10CFC00054CFF0E0543F4440F090E334E054E04468
:10CFD00012F0E0549FF0E0C2E7F0E5D5F509E5D4A2
:10CFE000F50A74E3F5D575D42E75D68153D1FE7547
:10CFF000D60174016F701F74FE5508F5AD75AC0055
:10D00000740755C6F8742AB800028005A2E713D841
:10D01000FBF5AB75AE01798F121D4C740755C6F840
:10D02000742AB800028005A2E713D8FBF5AB75AEF1
:10D0300002E5D1A2E050FA53D1FE8509D5850AD484
:07D040008EA87F04020BB66D
:08D80000000000000000000020
:040000050000087679
:00000001FF
